:020000040800F2
:10000000F85B00204D03000859630008E91D000853
:1000100057630008DB180008B16700080000000003
:100020000000000000000000000000009502000831
:10003000611C000800000000E9020008916500084A
:1000400067030008670300086703000867030008E8
:1000500067030008670300086703000867030008D8
:1000600067030008670300086703000867030008C8
:1000700067030008670300086703000867030008B8
:1000800067030008670300086703000867030008A8
:100090006703000867030008670300086703000898
:1000A0006703000867030008670300086703000888
:1000B0006703000867030008670300086703000878
:1000C0006703000867030008670300086703000868
:1000D000670300080166000867030008670300085B
:1000E0006703000867030008670300086703000848
:1000F0006703000867030008670300086703000838
:100100006703000867030008670300086703000827
:100110006703000867030008670300086703000817
:100120006703000867030008670300086703000807
:1001300067030008670300086703000867030008F7
:1001400067030008670300086703000867030008E7
:1001500067030008670300086703000867030008D7
:1001600067030008670300086703000867030008C7
:1001700067030008670300086703000867030008B7
:10018000670300086703000800F002F800F072F847
:100190000AA090E8000C82448344AAF10107DA45E2
:1001A00001D100F067F8AFF2090EBAE80F0013F0C2
:1001B000010F18BFFB1A43F00103184798C700004E
:1001C000B8C700000A444FF0000C10F8013B13F0D0
:1001D000070408BF10F8014B1D1108BF10F8015BA0
:1001E000641E05D010F8016B641E01F8016BF9D193
:1001F00013F0080F1EBF10F8014BAD1C0C1B09D1EA
:100200006D1E58BF01F801CBFAD505E014F8016B5B
:1002100001F8016B6D1EF9D59142D6D370470000ED
:100220000023002400250026103A28BF78C1FBD8FF
:10023000520728BF30C148BF0B60704766290BF0DA
:100240005484642900F0FE80782900F035817329F8
:1002500000F08885002070471FB50BF03CFC00F0D3
:10026000EBFD0400002000210AF058FEE0601FBDF5
:1002700010B510BD00F00AFF1146FFF7EDFF07F0C3
:10028000DDFF00F028FF03B4FFF7F2FF03BC07F027
:1002900012F800002A4B19680868B0E8F04F80F3A4
:1002A0000988BFF36F8F4FF0000080F3118870470B
:1002B0000000000006480068006880F3088862B605
:1002C00061B6BFF34F8FBFF36F8F00DF00BF00BF7A
:1002D00008ED00E0DFF80C00016841F470010160F6
:1002E000704700BF88ED00E0EFF30980BFF36F8F28
:1002F000134B1A681EF0100F08BF20ED108A20E97A
:10030000F04F106008B44FF0500080F31188BFF335
:100310004F8FBFF36F8F09F0D1FF4FF0000080F3D4
:10032000118808BC19680868B0E8F04F1EF0100F7B
:1003300008BFB0EC108A80F30988BFF36F8F704755
:10034000C0000020EFF30580704700000948804797
:1003500009480047FEE7FEE7FEE7FEE7FEE7FEE7A7
:10036000FEE7FEE7FEE7FEE704480549054A064BBF
:1003700070470000A565000889010008F8550020B5
:10038000F85B0020F8570020F8570020704710B5A0
:100390004C1084EA530404D54042C1F1000138BF37
:1003A000491E1B4204D55242C3F1000338BF5B1EF5
:1003B00000F0C7F914F0804F04D04042C1F10001B1
:1003C00038BF491E14F0004F04D05242C3F100035D
:1003D00038BF5B1E10BD00000FB4044910B503AA5E
:1003E000029800F0C3FC10BC5DF814FBAC000020C8
:1003F00070B50C460546012A05D02878800600D540
:10040000EA69002302E0012305E05B1C934202D26B
:10041000E05C0028F9D1A869E618C01AA861286A2A
:10042000184428622846AFF3008004E0D5E9012192
:1004300014F8010B9047B442F8D32846AFF300807C
:1004400070BD00002DE9F0410646002410687529B2
:10045000314615A510D0AFF30080002802DA4042E3
:1004600012A507E031688A0701D511A502E0490706
:1004700004D510A5012401E0AFF3008000210A2378
:1004800006F1240707E0B0FBF3F203FB1200303063
:1004900078541046491C0028F5D123462A46304698
:1004A000BDE8F04100F0CFB9000000002D000000D1
:1004B0002B0000002000000070B504460D462146C8
:1004C0001068AFF300802188090502D50F4A7A44ED
:1004D00002E00E4A7A440E32002104F1240305E0C2
:1004E00000F00F060009965D5E54491C0028F7D104
:1004F00020780023000704D5702D02D009B1022313
:1005000011322046BDE8704000F09DB970C2000075
:100510002DE9F05F894604464FF0000ADFF824B168
:10052000FB44C0F820A02046E168884700287DD021
:10053000252806D0D4E901219047206A401C20627A
:10054000F1E700255F462046E168884720280646F7
:1005500007DB312E05D2B81910F8200C08B105437D
:10056000F1E7A80701D525F00405C4F81CA0002771
:10057000C4F818A02A2E09D0304606F021FE38B360
:1005800004EB8708303EC8F8186019E059F8041BDE
:10059000204604EB87029161E1688847012F0646F7
:1005A00018D1E069002820DA25F020051DE0D8F8F0
:1005B000180000EB800006EB40003038C8F8180047
:1005C0002046E1688847064606F0FAFD0028EED18D
:1005D000012F0AD02E2E08D12046E16888477F1CC3
:1005E0000646022F45F02005C4DBA069002803DA87
:1005F000404245F00105A061E80701D025F0100553
:10060000A6B1A6F14100192802D8203645F40065AC
:100610004A463146204625604D46FFF70FFE60B141
:10062000012807D0ED1D25F0070000E007E000F1EC
:10063000080978E705F1040975E730467AE7206A8A
:10064000BDE8F09F46C2000040EA010310B59B07D9
:100650000FD1042A0DD310C808C9121F9C42F8D02C
:1006600020BA19BA884201D9012010BD4FF0FF30DD
:1006700010BD1AB1D30703D0521C07E0002010BDF3
:1006800010F8013B11F8014B1B1B07D110F8013B7F
:1006900011F8014B1B1B01D1921EF1D1184610BD60
:1006A000032A40F2308010F0030C00F0158011F89E
:1006B000013BBCF1020F624498BF11F801CB00F876
:1006C000013B38BF11F8013BA2F1040298BF00F8CA
:1006D00001CB38BF00F8013B11F0030300F0588351
:1006E000083AC0F0088051F8043B083A51F804CBAE
:1006F000A0E80810F5E7121D5CBF51F8043B40F874
:10070000043BAFF30080D20724BF11F8013B11F87E
:1007100001CB48BF11F8012B24BF00F8013B00F8C2
:1007200001CB48BF00F8012B704702F0FF0343EAFA
:10073000032242EA024200F05FBB704770477047F5
:10074000704753EA020C00F069802DE9F04B4FF03E
:100750000006002B1FBFB3FA83F503FA05F424FA51
:1007600005F65E4012BF1643B2FA82F502FA05F4AE
:10077000C5F120051EBF22FA05FC44EA0C04203511
:1007800056EA044C4FEA144418BF641C4FF00008AA
:100790004FF00009904271EB030C39D3002919BFC7
:1007A000B1FA81F701FA07F6B0FA80F700FA07F616
:1007B000C7F120071EBF20FA07FC46EA0C062037C7
:1007C000B6FBF4FCA7EB0507103F07F01F0BCBF1BE
:1007D00020060CFA0BFB2CFA06F644BFB3460026A3
:1007E000202FA4BF5E464FF0000B5BEA060C08BF4B
:1007F0004FF0010B19EB0B09ABFB027C48EB060831
:10080000C01B06FB02CC0BFB03CC71EB0C01C1E758
:100810000B46024641464846BDE8F08B13B54FF003
:1008200000004FF00001AFF30080BDE81C407047AE
:1008300010B500F005FB006810BD10B5044600F0CF
:10084000FFFA046010BD2DE9F0470D469946924627
:10085000044600F124080168880604D5E06921F007
:100860001001216000E00120A84201DD471B00E0EB
:100870000027A1697A1902EB0900081AA061207803
:10088000C00602D42046AFF30080002608E0D4E979
:1008900001211AF806009047206A401C761C20624D
:1008A0004E45F4DB2078C0060AD52046AFF3008021
:1008B00006E0D4E9012130209047206A401C2062E4
:1008C000381EA7F10107F4DC07E0D4E9012118F88C
:1008D00005009047206A401C2062281EA5F10105F2
:1008E000F3DC2046AFF300802078000602D502201A
:1008F000BDE8F0870120FBE770472DE9FF4F0C466C
:100900001E464FF0FF378BB0D2E90001DDF8608062
:100910000A908A46C1F30A5505B93D4600210846AA
:100920004FF00000BAF1000F00F4400005DA00EBD0
:1009300080004FF4400101EA50004FEA9059B9F1AC
:10094000010F00DDB9460A9850EA4A000ED044F67D
:100950001050A5F2FF3545432F14B8F1000F1ED0FB
:100960007542291E1EDDC9F100021CE0B8F1010F1D
:100970004FF0000001D0302103E0F24305E02154A4
:10098000401CB042FBDB30460022002121540B9971
:10099000C1F80880C1E900200FB0BDE8F08FBD1B91
:1009A0006D1CDEE74A4600DA694206A800F0D2FA7A
:1009B00006AB93E8070003AB83E8070050460A99AB
:1009C00000F0D0FB8DE80700A0F500501F38009024
:1009D0000398002D09DD42F21F014A46084403A98D
:1009E0000390684600F02FFE08E0A0F500504A464C
:1009F0001F3803A90390684600F039FE8DE8070010
:100A00000004000C03D04FF0FF30410800E0104616
:100A1000B8F1000F03D00022009215461EE0751EAB
:100A200005D400F011FA303262556D1EF9D5B34687
:100A30000122084302D000227F1C04E020783028E5
:100A400001D100227F1E002A099786D01DE0112DBA
:100A500007DA00F0F9F9303262556D1C50EA0102F4
:100A6000F5D1084302D00098C8B10EE00021681EFD
:100A700005E0235C625C63542254401E491C8142A1
:100A8000F7DBAB46A81B401E0990002004F80B00C2
:100A90000B98099AC0F80880C0E9002B7CE7112662
:100AA0004FF0000859E72DE9F04F88460446D21D63
:100AB00022F0070191B0D1E90001CDE90A0105F06A
:100AC00078FE02460B98C00F01D02D2007E0206869
:100AD000810701D52B2002E0202101EAC000032A72
:100AE000099001D0072A05DB03464146204600F065
:100AF000F1F909E12078800601D5E06900E00620DF
:100B0000B8F1650F814606D0B8F1660F18D0B8F17C
:100B1000670F70D131E00020B9F1110F009001DBB7
:100B2000112301E009F101030AAA01A90CA8FFF7AA
:100B3000E4FEDDE90C70002609F10105834647E07B
:100B400001204B4600904FF000470AAA01A90CA8CB
:100B5000FFF7D3FEDDE90DB00C995D46002610B914
:100B600009F101000D18B9EB050003D4C0F1FF36FF
:100B700009F10105A5EB09002BE0B9F1010F01DA3C
:100B80004FF001090020B9F1110F0090484601DD36
:100B9000112300E003460AAA01A90CA8FFF7ADFE45
:100BA000DDE90C704D4600268346207800070AD404
:100BB000AB4500DA5D4601A8012D04DD411911F8AD
:100BC000011C302907D04F4502DA17F1040F04DA6F
:100BD000012082460FE06D1EEEE7002F02DCED1BC8
:100BE0003E4403E0781CA84200DD7D1CB81B00F1E8
:100BF000010A4FF000472078000703D4AA4501DB23
:100C00004FF0FF3A0021B7F1004F0DF143088DF886
:100C1000431022D002202B23002F01DA7F422D2304
:100C20004FF00A0C011EA0F1010000DC47B197FB58
:100C3000FCF10CFB11720F46303208F8012DF1E780
:100C4000A8F1010003702188090501D5452100E0C4
:100C50006521A0F1010800F8011C09980FA9A1EB7A
:100C60000807FF1D00B10120411901EBEA70A169DD
:100C70003844081A401EA0612078C00602D42046DD
:100C8000AFF30080099828B1D4E901219047206A88
:100C9000401C20622078C00622D52046AFF3008099
:100CA0001EE0002E04DBB34502DD01A8805D00E0FC
:100CB0003020D4E901219047206A401C2062761C34
:100CC000AAF101005FEA000A0AD100F0B5F8C06895
:100CD0000168405CD4E901219047206A401C2062F1
:100CE000281EA5F10105DCDC07E0D4E9012118F894
:100CF000010B9047206A401C2062381EA7F10107B3
:100D0000F3DC2046AFF30080022011B045E600007E
:100D100001694A1C02610878704700B58FB0CDE9BF
:100D200001310021059105497944CDE903101146AF
:100D30006846FFF7EDFB0FB000BD0000E5FFFFFFC9
:100D400010B5436913B1AFF3008001E0FFF750FB2A
:100D5000012010BD127800F124010A7000224A70AF
:100D60000122EDE711684FF0FF32E9E7074B70B55C
:100D70000D467B44FFF7D1FF0446284600F056F9A4
:100D800010B14FF0FF3070BD204670BD8F6F000076
:100D900010B5203AC0F00B80B1E81850203AA0E816
:100DA0001850B1E81850A0E81850BFF4F5AF5FEA4A
:100DB000027C24BFB1E81850A0E8185044BF18C9FD
:100DC00018C0BDE810405FEA827C24BF51F8043BA4
:100DD00040F8043B08BF7047D20728BF31F8023BF8
:100DE00048BF11F8012B28BF20F8023B48BF00F88C
:100DF000012B70474FF000020429C0F0128010F060
:100E0000030C00F01981CCF1040CBCF1020F18BFE7
:100E100000F8012BA8BF20F8022BA1EB0C0100F079
:100E20000BB95FEAC17C24BF00F8012B00F8012B4D
:100E300048BF00F8012B704700487047B8550020A4
:100E4000004870479855002030B5B0F10A024FEACB
:100E5000900E71F100034EEA817EB0EB0E0061EB63
:100E600091014FEA101E4EEA017E10EB0E0041EB9D
:100E700011114FEA102E4EEA016E10EB0E0041EBFD
:100E800011214FEA104E4EEA014E10EB0E0041EBDD
:100E90001141401841F100014FEAD00040EA417091
:100EA0004FEAD10110EB80054FEA810444EA9074C7
:100EB00044EB01046D1944EB0404521BA3414FF0B1
:100EC000000348BF0A3200D530BD401C41F100018B
:100ED00030BD00002DE9F0411F460446032601689D
:100EE000072A01F4006004DB08B116A505E016A589
:100EF00003E008B115A500E015A521F01000206061
:100F0000A069C01EA0610FB1401EA0612046AFF3D2
:100F100000804FB1D4E9012138469047206A401C37
:100F20002062C01C206206E0206AFAE7D4E90121B1
:100F300015F8010B9047761EF8D22046AFF30080DB
:100F4000BDE8F0814E414E006E616E00494E460094
:100F5000696E66002DE9F047814616468AB0324830
:100F600078440DC88DE80D002F487844801C03ACF0
:100F70000DC884E80D0041F69B303722014491FBF7
:100F8000F2F0A0F1800502FB10141B3C02D5644274
:100F9000012000E00020DFF890A080460027FA44FE
:100FA000AAF1BA0A0DE0E00709D03246684607EB1D
:100FB00047010AEB810100F05AFB8DE8070064103D
:100FC0007F1C002CEFD1184F7F44A83F18E0E807A2
:100FD00014D007EB04100DF1180A90E80E008AE80F
:100FE0000E00C068F04201D198190890324606A957
:100FF00003A800F03CFB03AB83E807006D10641C02
:10100000002DE4D132466946B8F1000F03A802D0A2
:1010100000F019FB01E000F02AFBC9E90001C9F862
:1010200008200AB0BDE8F08788B90000007B00F016
:10103000800070474FF0000200B513469446964674
:10104000203922BFA0E80C50A0E80C50B1F12001DB
:10105000BFF4F7AF090728BFA0E80C5048BF0CC089
:101060005DF804EB890028BF40F8042B08BF7047E7
:1010700048BF20F8022B11F0804F18BF00F8012B59
:101080007047000000487047985500207546FFF7EC
:10109000F9FFAE4605006946534620F00700854635
:1010A00018B020B5FFF760F9BDE820404FF000060A
:1010B0004FF000074FF000084FF0000B21F0070140
:1010C000AC46ACE8C009ACE8C009ACE8C009ACE883
:1010D000C0098D4670470446AFF300802046FFF7F5
:1010E000D2F800004FF0013C50F8042B51F8043BBB
:1010F0009A4221D1A2EB0C03934313EACC1317D1EC
:1011000050F8042B51F8043B9A4215D1A2EB0C0382
:10111000934313EACC130BD150F8042B51F8043B42
:101120009A4209D1A2EB0C03934313EACC13DBD010
:101130004FF00000704700BFD01A01BAB1FA81F138
:1011400001F0180122FA01F0CB40C1F12001DBB21D
:10115000C0B2C01A2CFA01F3D11A914311EAC3119B
:10116000E6D170475FEA400C08BF91F0000F4FEAEC
:101170008C234FEAC12243EA51514FEA1C5018BF59
:1011800000F5F0404FEA300018BF41F000415FEA3F
:101190006C5C00F02980BCF1FF3F08BF40F080404C
:1011A0007047130C06BF12044FF0100C4FF0000CE8
:1011B000130E04BF12020CF1080C130F04BF12012E
:1011C0000CF1040C930F04BF92000CF1020CD30F2E
:1011D00004BF52000CF1010C11464FF00002A0F1C7
:1011E0001F00A0EB0C00704711F0004F08BF7047C4
:1011F00031F000413FF4D5AF0B0C06BF09044FF0AE
:10120000100C4FF0000C0B0E04BF09020CF1080C7F
:101210000B0F04BF09010CF1040C8B0F04BF8900F4
:101220000CF1020CCB0F04BF49000CF1010CCCF106
:101230002003A0EB0C0022FA03F302FA0CF241EABD
:10124000030100F10100704720F07F4C80EA0300A9
:1012500023F07F47ACEB070303F57C5300F000401D
:1012600003F1FF032DE980494FEA154B09B44FEA1A
:10127000144325EA0B4E24EA03480FF2042606EB3A
:10128000132749083E785FEA320203FB0667C7F579
:10129000000707FB06F64FEA54374FEAD64606F139
:1012A000020607FB066CCCF1005C4FEA1C472CEAF7
:1012B000074C07FB06F40CFB06F504EB15464FEA5A
:1012C000961634BF00204FF000404FEAD13706FB9E
:1012D00007FC4FEA1C4C0CFB0BF7D21B03FB0CF773
:1012E00061EB07010CFB0EF7B0EB074072EB174206
:1012F0000CFB08F734BFA2EB0742B2EB074261EBED
:1013000017414FEA0C444FEA910706FB07FC4FEAEE
:101310001C4C0CFB0BF7B0EBC74072EB573203FBD6
:101320000CF734BFA2EBC742B2EBC74261EB5731B7
:101330000CFB0EF7B0EBC70072EB57720CFB08F713
:1013400034BFA2EBC702B2EBC70261EB5771039F38
:101350004FEA816141EA921104EBCC044FEAD137A4
:101360004FEA826206FB07FC42EA90124FEA806075
:101370004FEA1C4C0CFB0BF7D21B03FB0CF761EB89
:1013800007010CFB0EF7B0EB074072EB17420CFBAA
:1013900008F734BFA2EB0742B2EB074261EB1741FB
:1013A0004FEA8C554FEA910704EB9C2406FB07FC9F
:1013B0004FEA1C4C0CFB0BF7B0EBC74072EB5732FB
:1013C00003FB0CF734BFA2EBC742B2EBC74261EBA1
:1013D00057310CFB0EF7B0EBC70072EB57720CFBEA
:1013E00008F734BFA2EBC702B2EBC70261EB57713B
:1013F00015EB4C254FEA816141EA92114FEA826276
:101400004FEAD13742EA901206FB07FC44F1000490
:101410004FEA80604FEA1C4C0CFB0BF7D21B03FB1E
:101420000CF761EB07010CFB0EF7B0EB074072EB1A
:1014300017420CFB08F734BFA2EB0742B2EB07429E
:1014400061EB174115EB1C154FEA813141EA9241DE
:101450004FEA823242EA90424FEA80304FEA0C76FD
:1014600044F1000448EA03434EEA0B484FF0000EF3
:10147000B2EB080C71EB030724BF624639464EEB12
:101480000E0E4FF0000B0018524149414BEB0B0B75
:10149000B2EB080C71EB03077BF1000B24BF624633
:1014A00039464EEB0E0E4FF0000B001852414941E9
:1014B0004BEB0B0BB2EB080C71EB03077BF1000B52
:1014C00024BF624639464EEB0E0E51EA020718BFA2
:1014D00046F0010616EB0E7655F1000254F10001BC
:1014E00003D5BDE88901BDE80088BDE88901B619CA
:1014F000BDE80048524141EB0101A3F101037047EF
:1015000080807F7E7D7C7B7A797877767675747340
:10151000727171706F6E6E6D6C6C6B6A6A696868FF
:10152000676666656464636362616160605F5F5E95
:101530005E5D5D5C5C5B5B5A5A595958585757560B
:101540005655555554545353525252515150505070
:101550004F4F4F4E4E4D4D4D4C4C4C4B4B4B4A4AC2
:101560004A49494948484847474747464646454506
:10157000454444444443434343424242424141413F
:10158000002B26D4770021D01CB54FEA370703B4CF
:101590004FF010004FF010014FF000000FBC0BF1A6
:1015A000010BBDE81040BBF1010F08BF5FEA170750
:1015B00022BF12F1010211F101014FF0004143F18C
:1015C000000300F0004043EA00007047F9D35708D9
:1015D000DAE746EA064613F1400F4FEA16461FDDEA
:1015E00013F1200FDFBF16430A46002120335B4270
:1015F000C8D0C3F1200746EA064602FA07F74FEAC9
:10160000164646EA0706C3F1200722FA03F201FA5A
:1016100007F721FA03F14FF0000342EA0702B1E7AE
:1016200046EA020646EA06464FEA164646EA01063A
:10163000BCBF46EA0646360C4FF000034FF00002EE
:101640004FF000019EE72DE9C048934630B491E881
:10165000380007C831EA400C48BF34EA430C03D5D0
:10166000FFF7F2FDFFF78CFFF0BCBDE800882DE925
:10167000C048934630B491E8380007C810F0804F56
:1016800008BF13F0804F03D100F005F8FFF778FF93
:10169000F0BCBDE8008820F07F4780EA030023F01B
:1016A0007F4C07EB0C03A3F57C5300F00040A3F143
:1016B000FE0392F0000F00F0B38095F0000F00F0F1
:1016C00077802DE901494FEA11404FEA144621EA9B
:1016D000004800FB06FC24EA064708FB06F607FB69
:1016E00008F800FB07F718EB06484CEB164C4FEADE
:1016F000124B18EB07484FEA15464CEB174022EA0D
:101700000B4E0BFB06FC25EA06470EFB06F607FB15
:101710000EFE0BFB07F71EEB064E4CEB164C4FF084
:1017200000061EEB074E4CEB174B18EB0B0840F175
:10173000000018EB0E0B58EB000840F100008F1A68
:101740004FF000013CBFC943661B14BFB5EB040C4E
:1017500000213CBFC943F61B4FEA17444EEA8E0EE8
:1017600027EA04454FEA1C4704FB07622CEA074CB2
:1017700005FB07F70CFB05F604FB0CFC16EB074614
:1017800042EB174216EB0C4642EB1C421BEB0606E3
:1017900058EB0202414146EA9E0601D5BDE80189A7
:1017A000B619524141EB0101A3F10103BDE80189E2
:1017B0004FEA14454FEA114724EA054621EA074C4F
:1017C00005FB07F406FB07F70CFB06F105FB0CFC19
:1017D00011EB074144EB17444FEA124711EB0C4160
:1017E00044EB1C4422EA074C05FB07F206FB07F713
:1017F0000CFB06F605FB0CFC16EB074642EB17420A
:1018000016EB0C4642EB1C456A1854F1000148BF28
:101810007047B619524141EB0101A3F10103704732
:1018200095F0000F37D04FEA11424FEA144721EAF2
:10183000024624EA074C02FB07F106FB07F70CFB04
:1018400006F402FB0CFC14EB074441EB17414FEA92
:10185000154714EB0C4441EB1C4125EA074C02FBF5
:1018600007F506FB07F70CFB06F602FB0CFC16EB74
:10187000074645EB174516EB0C4645EB1C42121983
:1018800051F1000148BF7047B619524141EB0101C7
:10189000A3F1010370474FEA14454FEA114724EAC8
:1018A000054621EA074C05FB07F106FB07F70CFB91
:1018B00006F24FF0000605FB0CFC12EB074241EB71
:1018C000174112EB0C4251EB1C4148BF7047921874
:1018D00041EB0101A3F101037047FEE72DE9F04F51
:1018E00089B08A4606460121984691460846DDF8A9
:1018F00048B004F06FFD0121480604F083FD4FF469
:10190000C050079002208DF8200000248DF822405E
:1019100003208DF82100244F01258DF8235007A9BD
:10192000384600F013FA09220B21384600F04AFA33
:1019300009220C21384600F045FA8DF806408DF852
:1019400008408DF807408DF809408DF802B08DF8F9
:101950000A408DF803608DF804908DF80B508DF8D7
:1019600005A0ADF800806946104800F0B3F80E20DD
:101970008DF81600ADF810404FF6FF708DF8174047
:101980008DF81850ADF80C40ADF81200ADF80E40CF
:10199000ADF814508DF8195003A800F035F809B0CF
:1019A0000020BDE8F08F000000000240006400400D
:1019B00030B585B0000240F00100019004208DF8A0
:1019C000080000258DF8095008208DF80A00080A43
:1019D000089C8DF80C008DF80D20100A8DF80E0073
:1019E000180A8DF810008DF80B108DF811508DF835
:1019F0000F308DF812406946024800F0DFF805B05C
:101A0000002030BD00640040F0B5827A2F4D0121E6
:101A100091402A6842F001022A602C4E1C3632683E
:101A20008A433260294A047B294B0C32A4B91468DA
:101A30008C4314604488C78844EA0744877A03EBE0
:101A4000C707C7F840460488878844EA0744877A6E
:101A500003EBC707C7F84446047B012C12D1146876
:101A60000C431460847A026803EBC4044FEA3242E8
:101A7000C4F84026847A426803EBC4034FEA32423A
:101A8000C3F84426114AC37A121D002B136806D0EE
:101A90000B4313600D4A0389143213B104E08B43E6
:101AA000F7E713688B4313600389012B02D1136896
:101AB0000B431360407B012802D13068084330603B
:101AC000286820F001002860F0BD0000006600409A
:101AD0000060004010B50368002223F00203036099
:101AE000036843F0010303604FF6FF7300E0521CEC
:101AF0004468E40701D19A42F9D14268D2073ED046
:101B00008A79012A02683CD022F080020260CA79F8
:101B1000012A026838D022F0400202600A7A012AC3
:101B2000026834D022F0200202604A7A012A026858
:101B300030D022F0100202608A7A012A02682CD08A
:101B400022F008020260CA7A012A026828D022F034
:101B5000040202608A78CC78920742EA04620C7927
:101B600042EA04424C79098842EA0452491E0A4377
:101B7000C261016821F001010160002114E0002030
:101B800010BD42F08002C1E742F04002C5E742F0DA
:101B90002002C9E742F01002CDE742F00802D1E787
:101BA00042F00402D5E7491C4268D20701D09942AD
:101BB000F9D14068C007E2D1012010BD30B502461E
:101BC000002093685B0108D49068000101D50120D2
:101BD00003E09068C00037D5022002EB0012D2F873
:101BE000803103F00103C2F880310B7A73B3D2F86D
:101BF00080414D681C434B7A43EAC5031C43C2F83D
:101C000080418B7A03F00F038B72D2F8843123F07A
:101C10000F03C2F88431D2F884318C7A2343C2F89E
:101C20008431CB7ACC6843EA0423C2F88831CB7B79
:101C3000096943EA0121C2F88C11D2F8801141F000
:101C40000101C2F8801130BD042030BDD2F88031CE
:101C50004C7A23430C8843EA4453C2F88031D0E7DE
:101C6000704700008000A0F1C0400029016802D048
:101C700041F0010101E0024A11400160704700009B
:101C8000FEFF0F0010B5D0E901121143D0E9032384
:101C90001A4311434269114382691143C2691143D6
:101CA000026A1143426A1143826A1143C26A1143B4
:101CB000026B114302689200A2F1C0421160816878
:101CC000082907D101688900A1F1C0410A6842F0E2
:101CD00040020A60416BD1E9002342EA03128B689B
:101CE0008C891B0243EA04431A430B8A42EA0352DB
:101CF0000B7D896942EA03620A4301688900A1F108
:101D0000C0414A60C16AB1F5804F08D000686FF0E9
:101D100070418000A0F1C040C0F8041110BD816B7B
:101D2000D1E9002342EA03128B680C8A1B0243EAC2
:101D300004531A430B7D896942EA036200680A432F
:101D40008000A0F1C040C0F8042110BDF0B5002211
:101D500001274FF0030C0B6807FA02F52B40AB424A
:101D60002CD1066853000CFA03F4A64306600E79E2
:101D7000D0F800E09E4046EA0E0606600E79012E7D
:101D800001D0022E12D18668A64386604E79D0F823
:101D900008E09E4046EA0E0686604668AE4346600E
:101DA00045688E799640B6B235434560C568A5430F
:101DB000C560CC799C40C3681C43C460521C102A87
:101DC000C9D3F0BD4B07DB0E9A40C90810B500EB34
:101DD0008100016A0F249C40A1430162016A114302
:101DE000016210BD01837047FEE7000070B50D4C25
:101DF0000025C4F8A0520C48016821F4402101607C
:101E0000016841F480210160C4F8A452022004F565
:101E1000287405F03DFB01202060022005F038FB0E
:101E2000256070BD00804042000402401CB50121C5
:101E3000022004F0CFFA4FF44070012400908DF896
:101E4000044000208DF8060003208DF805008DF871
:101E5000074069460448FFF779FF0448C0F8A042EC
:101E6000C0F8A4421CBD00000004024000804042B3
:101E700070B50D4C0026C4F8A0620C48016821F42E
:101E800040210160016841F4802101600125C4F80E
:101E9000A452022004F5287405F0FAFA2560022005
:101EA00005F0F6FA266070BD008040420004024052
:101EB0002DE9F047814616480024016821F44021AD
:101EC000016001680160134E254627464FF0010866
:101ED000C6F8A072022005F0DBFAC6F8A082600600
:101EE000040ED6F8240208B1641CE4B2012005F007
:101EF000CFFA6D1CEDB2082DEAD3B9F1000F04D072
:101F0000FFF774FF2046BDE8F087FFF7B1FFF9E760
:101F100000040240008040422DE9F041054614488B
:101F2000016821F440210160016841F480210160D1
:101F3000104E0027C6F8A0723C464FF00108E80991
:101F4000C6F8A4026806050E022005F0A1FAC6F83C
:101F5000A082022005F09CFAC6F8A072022005F0CB
:101F600097FA641CE4B2082CE9D3BDE8F0810000C4
:101F7000000402400080404270B50D48016821F421
:101F800040210160016841F480210160094C012079
:101F9000C4F8A402C4F8A002042004F5287405F0D3
:101FA00077FA00256560042005F072FA256070BD9F
:101FB00000040240008040420E4810B5016821F440
:101FC00040210160016841F4802101600A4C002039
:101FD000C4F8A002C4F8A402042004F5287405F093
:101FE00057FA012020606060BDE81040042005F031
:101FF0004FBA0000000402400080404270B5124811
:102000000024016821F440210160016801600F4D46
:102010000126C5F8A462304605F03AFAC5F8A06278
:10202000012005F035FA07E0641CE4B2FA2C03D96C
:10203000FFF7C2FF012070BDD5F824020028F3D1BC
:10204000C5F8A00270BD00000004024000804042BC
:102050002DE9F04100EE100A2DED108BB8EEC09A7C
:1020600000EE101AB8EEC08A00EE102AB84CDDED72
:10207000160AF8EEC08A00EE103AB8EEE02A94EDA7
:10208000031AF8EEC02A94ED020AD4ED040ADDED3D
:10209000179A20EE00EA60EE01DA20EE20FA94EDC5
:1020A000050AF8EEE91A21EE01DA61EE00EA20EE07
:1020B00080CA60EE00BA29EE080A60EEA0CADDE927
:1020C000196520EE280A189FB5EEC00AF1EE10FA45
:1020D0007ED09FEDA00A22EE80BA62EE00AA21EE29
:1020E00080AA29EE090A08EE080A08EEA80A10EEEE
:1020F000100A09F07FFC41EC100B04F095FF51EC45
:10210000100B08F02DFF00EE100AC9EE000A88EE51
:10211000001AB0EE008AC8EE801A3EEECF0A20EE1A
:10212000082A3DEE8C0A60EE082A3EEE4D0A30EE9B
:102130006C0A30EE2B3A21EE030A01EEE20A61EE60
:10214000821A40EEC31A60EEA20A41EE420A94EDF2
:10215000061ADFED813A00EE231A84ED061AD4ED5B
:10216000072A41EEA32AC4ED072A94ED082A00EEBF
:10217000A32A84ED082A9FED793A00EE03BA41EED6
:1021800083AA94ED030A00EE83AA94ED053AD4EDF8
:10219000020A3BEE011A7AEEA21AD4ED042A3AEEB4
:1021A000022A20EE414A02EEE14A03EE424A44EEA0
:1021B000230AC4ED020A20EE814A02EE824A03EEAF
:1021C000614A04EE230A20EEA14A84ED030A00E0EE
:1021D000B9E000EE424A20EE822A60EEA00A00EE4C
:1021E000212A03EE014A40EE000A44EE232AC4ED00
:1021F000042A02EEC12A42EEA20A02EE233A84ED3C
:10220000053A43EE030A10EE900A09F0F3FB41ECA5
:10221000100B04F009FF51EC100B08F0A1FE00EECA
:10222000100AD4ED020A80EE801A84ED021AD4ED71
:10223000030A80EE801A84ED031AD4ED040A80EEBE
:10224000801A84ED041AD4ED050A80EE801AF8EEA7
:10225000E90A84ED051A95ED000A9FED411A60EE3A
:10226000810A9FED401A00EE810A85ED000A606840
:1022700009F0C0FB94ED030AF8EE008AD4ED050ADC
:1022800020EE280A94ED041A41EC190B20EE200AE6
:10229000D4ED020A60EE880A00EE810A10EE100A00
:1022A00009F0A8FB41EC100B04F09EFA9FED2EBB49
:1022B00051EC100B53EC1B2B09F0DCF853EC192BF1
:1022C00009F0AEFA08F04CFE3860206809F092FB85
:1022D00094ED03CA41EC1A0B2CEE280A60EE0C0AAE
:1022E00094ED040A60EE088A48EEC00AB7EE000AD0
:1022F00030EE800A10EE100A09F07CFB94ED050A1E
:10230000D4ED020A41EC190B28EE800A60EE880A2F
:1023100000EE8C0A10EE100A09F06CFB41EC100B79
:10232000B0EE491AF0EE691A04F086FD53EC1B2B4F
:1023300051EC100B09F09EF853EC1A2B09F070FACF
:1023400008F00EFE3060BDEC108BBDE8F08100009F
:102350004C00002089A18B3A6F12833ACDCCCC3F40
:10236000F1FF793D6F12033B6666666666A64C40D8
:102370002DE9F043184F0646002438887D884543F0
:10238000B888A0F5D041043902D1B879012808D025
:102390000021084603F082FD03F040FE4FF0D840D4
:1023A00016E00020B8714FF02A09A7F80A904FF004
:1023B0002B08A7F80C80014603F070FD0120B871CE
:1023C000A7F80A80A7F80C90E6E7A0F88060641CE4
:1023D000AC42FAD3BDE8F083740100202DE9F04F40
:1023E0004A492A232B24898845F2105A4FF4305B3E
:1023F0004FF4285E4FF448754FF0F00C49F2413924
:102400004FF4A07745F210364FF4F07280B13F4898
:102410004FF00108494580F806800780A0F802C007
:1024200001D0B1423ED12C2505814381848157E002
:1024300036484FF00008494580F80680A0F800C0F3
:10244000478006D0A1F5D04CBCF1040C01D0B142BC
:102450000CD12C2505814381A1F5D0438481043B17
:1024600001D0B14244D10780428041E0514507D1BB
:10247000A0F808B0A0F80AE04FF42C5181810EE0DA
:10248000A1F5C856633E06D0222101812021418159
:10249000212181812CE02C210181448183810280D2
:1024A000458025E0A1F5D04CBCF1040C09D0514584
:1024B0000BD1A0F808B0A0F80AE04FF42C538381A8
:1024C00021E02C250581448109E0A1F5C85CBCF11F
:1024D000630C12D022230381212343812023838193
:1024E000A1F5D043043B01D0B14201D10280478025
:1024F000BDE8F04F002003F0CFBB4FF02C0CA0F84C
:1025000008C04381848105804280E9E7740100208E
:102510002DE9F04FA1B0002401217A201F9403F08F
:1025200059FF0121084603F061FF4FF4004000907D
:1025300001208DF804008DF8064002208DF805007A
:1025400001208DF807006946FE48FFF7FFFB4CF2BB
:102550003370009002208DF804008DF806400320AF
:102560008DF8050001208DF807006946F648FFF751
:10257000EDFB4FF68070009002208DF804008DF87E
:10258000064003208DF805000120F04D8DF807006E
:1025900069462846FFF7DAFBA814009002208DF860
:1025A00004008DF8064003208DF805000120E84E58
:1025B0008DF8070069463046FFF7C8FBA814009065
:1025C00002208DF804008DF8064003208DF80500E8
:1025D0000120E04F8DF8070069463846FFF7B6FB4B
:1025E0000C220021D848FFF7EDFB0C220121D64830
:1025F000FFF7E8FB0C220421D348FFF7E3FB0C2292
:102600000521D148FFF7DEFB0C220821CE48FFF759
:10261000D9FB0C220921CC48FFF7D4FB0C220A215C
:10262000C948FFF7CFFB0C220E21C748FFF7CAFBB2
:102630000C220F21C448FFF7C5FB0C2207212846B6
:10264000FFF7C0FB0C2208212846FFF7BBFB0C223A
:1026500009212846FFF7B6FB0C220A212846FFF77E
:10266000B1FB0C220B212846FFF7ACFB0C221146D4
:102670002846FFF7A7FB0C220D212846FFF7A2FBF7
:102680000C220E212846FFF79DFB0C220F21284625
:10269000FFF798FB0C2211463046FFF793FB0C2204
:1026A00011463846FFF78EFB0F20CDE911043C2080
:1026B000CDE91304159409201694CDE9174008209C
:1026C000CDE919401B941C940620CDE902041D9409
:1026D0001E941020CDE9044006940002CDE90A4082
:1026E000089407948000CDE90C40099411A8CDE925
:1026F0000E4018A8109002A8FFF7C4FA0121062086
:10270000FFF7B0FA322004F0A7FE0121002003F009
:102710008FFC322004F0A0FE002003F08AFA8E4ADB
:102720004FF0204A4FF6FF7B908049F2413545F249
:10273000103645F2105441F6631846F60407FF2898
:1027400004D3584502D0B0F5134F74D1D32003F011
:1027500059FC03F064FA908003F061FA908003F072
:102760005EFA0BEA0020D946908003F058FA91886F
:1027700008439080A8425ED0BF2003F043FC03F0E2
:102780004EFA908003F04BFA908003F048FA908064
:1027900003F045FA09EA0020908003F040FA91889E
:1027A00008439080B84246D0D42003F02BFC03F0BD
:1027B00036FA908003F033FA908003F030FA09EA99
:1027C0000020908003F02BFA918808439080B0425B
:1027D00031D04FF45A4003F015FC03F020FA9080FA
:1027E0004FF45B4003F00EFC03F019FA09EA0020F5
:1027F00090804FF45C4003F005FC03F010FA9188E0
:1028000008439080B0F5004F39D0A04213D0A120EA
:1028100003F0F8FB03F003FA908003F000FA09EAF2
:102820000020908003F0FBF991880843A0F5AE41A9
:102830009080613920D080B2A84205D0B04203D048
:10284000A04201D040451CD1DAF81C11504621F0BD
:102850000F01CAF81C11DAF81C1121F47061CAF8D2
:102860001C11DAF81C1141F00301CAF81C11DAF846
:102870001C1141F4007121E0A2F80480E4E7948087
:10288000E2E7B84203D0A0F54541053918D1DAF89E
:102890001C11504621F00F01CAF81C11DAF81C1166
:1028A00021F47061CAF81C11DAF81C1141F00A0118
:1028B000CAF81C11DAF81C1141F44061C0F81C116F
:1028C0009146918825A0FDF787FDB9F80400A8423C
:1028D0007DD1CF2003F096FB002003F087FBC120C1
:1028E00003F084FB302003F081FBED2003F08AFB32
:1028F000642003F07BFB032003F078FB122003F03D
:1029000075FB812003F072FBE82003F07BFB852040
:1029100003F06CFB102003F069FB7A2003F066FBE8
:10292000CB2003F06FFB392003F060FB2C2003F079
:102930005DFB002003F05AFB342003F057FB02201C
:1029400014E0000000040240000C024000100240AD
:10295000001402400018024074010020204C43443F
:102960002049443A25780D0A0000000003F03EFBA0
:10297000F72003F047FB202003F038FBEA2003F0A8
:1029800041FB002003F032FB002003F02FFBC020AE
:1029900003F038FB1B2003F029FBC12003F032FBBE
:1029A000012003F023FBC52003F02CFB302003F0B3
:1029B0001DFB302003F01AFBC72003F023FBB720D8
:1029C00003F014FB362003F01DFB482000E0A7E0D5
:1029D00003F00CFB3A2003F015FB552003F006FB37
:1029E000B12003F00FFB002003F000FB1A2003F0DE
:1029F000FDFAB62003F006FB0A2003F0F7FAA22046
:102A000003F0F4FAF22003F0FDFA002003F0EEFAEE
:102A1000262003F0F7FA012003F0E8FAE02003F0A3
:102A2000F1FA0F2003F0E2FA2A2003F0DFFA28205F
:102A300003F0DCFA082003F0D9FA0E2003F0D6FAEE
:102A4000082003F0D3FA542003F0D0FAA92003F0B1
:102A5000CDFA432003F0CAFA0A2003F0C7FA0F2088
:102A600003F0C4FA002003F0C1FA002003F0BEFA1C
:102A7000002003F0BBFA002003F0B8FAE12003F0D5
:102A8000C1FA002003F0B2FA152003F0AFFA1720C4
:102A900003F0ACFA072003F0A9FA112003F0A6FA1C
:102AA000062003F0A3FA2B2003F0A0FA562003F02F
:102AB0009DFA3C2003F09AFA052003F097FA1020C3
:102AC00003F094FA0F2003F091FA3F2003F08EFAFE
:102AD0003F2003F08BFA0F2003F088FA2B2003F03D
:102AE00091FA002003F082FA002003F07FFA01201F
:102AF00003F07CFA3F2003F079FA2A2003F082FAEF
:102B0000002003F073FA002003F070FA002003F0B5
:102B10006DFAEF2003F06AFA112003F073FAA5E0D2
:102B2000B8427CD1112003F06DFA142004F094FC1B
:102B3000D02003F067FA072003F058FA422003F090
:102B400055FA1D2003F052FAD12003F05BFA002061
:102B500003F04CFA1A2003F049FA092003F046FA70
:102B6000D22003F04FFA012003F040FA222003F0B4
:102B70003DFAC02003F046FA102003F037FA3B205C
:102B800003F034FA002003F031FA022003F02EFAA9
:102B9000112003F02BFAC52003F034FA032003F0D0
:102BA00025FAC82003F02EFA002003F01FFA252092
:102BB00003F01CFA212003F019FA052003F016FA9D
:102BC000002003F013FA0A2003F010FA652003F046
:102BD0000DFA252003F00AFA772003F007FA5020B7
:102BE00003F004FA0F2003F001FA002003F0FEF9CD
:102BF000F82003F007FA012003F0F8F9FE2003F0B3
:102C000001FA002003F0F2F9022003F0EFF920208E
:102C100003F0F8F9362003F0F5F9082000E02BE086
:102C200003F0E4F93A2003F0EDF9552003F0DEF962
:102C30002B2003F0E7F9002003F0D8F9002003F07F
:102C4000D5F9012003F0D2F93F2003F0CFF92A2073
:102C500003F0D8F9002003F0C9F9002003F0C6F909
:102C6000012003F0C3F9DF2003F0C0F9782004F05D
:102C7000F3FB292001F0FBBEB0427CD1ED2003F034
:102C8000C1F9012003F0B2F9FE2003F0AFF9EE2004
:102C900003F0B8F9DE2003F0A9F9212003F0A6F92A
:102CA000F12003F0AFF9012003F0A0F9DF2003F0D9
:102CB000A9F9102003F09AF9C42003F0A3F98F209A
:102CC00003F094F9C62003F09DF9002003F08EF97B
:102CD000E22003F08BF9E22003F088F9E22003F010
:102CE00085F9BF2003F08EF9AA2003F07FF9B02008
:102CF00003F088F90D2003F079F9002003F076F94C
:102D00000D2003F073F9002003F070F9112003F097
:102D10006DF9002003F06AF9192003F067F900202B
:102D200003F064F9212003F061F9002003F05EF95B
:102D30002D2003F05BF9002003F058F93D2003F04B
:102D400055F9002003F052F95D2003F04FF90020FF
:102D500003F04CF95D2003F049F9002003F046F937
:102D6000B12003F04FF9802003F040F9002003F078
:102D70003DF98B2000E0FCE303F038F9002003F07C
:102D800035F9962003F032F9002003F02FF9B22034
:102D900003F038F9002003F029F9002003F026F9A8
:102DA000022003F023F9002003F020F9032003F0B0
:102DB0001DF9002003F01AF9B32003F023F90020D5
:102DC00003F014F9002003F011F9002003F00EF9CC
:102DD000002003F00BF9002003F008F9002003F0B5
:102DE00005F9002003F002F9002003F0FFF80020AD
:102DF00003F0FCF8002003F0F9F8002003F0F6F8E7
:102E0000002003F0F3F8002003F0F0F8002003F0B6
:102E1000EDF8002003F0EAF8002003F0E7F80020C6
:102E200003F0E4F8002003F0E1F8002003F0DEF8FE
:102E3000002003F0DBF8002003F0D8F8002003F0B6
:102E4000D5F8002003F0D2F8002003F0CFF8B4202A
:102E500003F0D8F88B2003F0C9F8002003F0C6F87F
:102E6000962003F0C3F8002003F0C0F8A12003F07F
:102E7000BDF8002003F0BAF8B52003F0C3F8022033
:102E800003F0B4F8002003F0B1F8032003F0AEF82B
:102E9000002003F0ABF8042003F0A8F8002003F0B2
:102EA000A5F8B62003F0AEF8002003F09FF800204C
:102EB00003F09CF8B72003F0A5F8002003F096F883
:102EC000002003F093F83F2003F090F8002003F077
:102ED0008DF85E2003F08AF8002003F087F8642064
:102EE00003F084F8002003F081F88C2003F07EF8D2
:102EF000002003F07BF8AC2003F078F8002003F00A
:102F000075F8DC2003F072F8002003F06FF87020F1
:102F100003F06CF8002003F069F8902003F066F8E5
:102F2000002003F063F8EB2003F060F8002003F0CA
:102F30005DF8DC2003F05AF8002003F057F8B820C1
:102F400003F060F8002003F051F8002003F04EF881
:102F5000002003F04BF8002003F048F8002003F0B5
:102F600045F8002003F042F8002003F03FF800206D
:102F700003F03CF8BA2003F045F8242003F036F8BB
:102F8000002003F033F8002003F030F8002003F0B5
:102F90002DF8C12003F036F8202003F027F8002098
:102FA00003F024F8542003F021F8002003F01EF869
:102FB000FF2003F01BF8002003F018F8C22003F0F4
:102FC00021F80A2003F012F8002003F00FF8042083
:102FD00003F00CF8002003F009F8C32003F012F806
:102FE0003C2003F003F8002003F000F83A2002F040
:102FF000FDFF002002F0FAFF392002F0F7FF002069
:1030000002F0F4FF372002F0F1FF002002F0EEFFA3
:103010003C2002F0EBFF002002F0E8FF362002F037
:10302000E5FF002002F0E2FF322002F0DFFF002087
:1030300002F0DCFF2F2002F0D9FF002002F0D6FFC3
:103040002C2002F0D3FF002002F0D0FF292002F054
:10305000CDFF002002F0CAFF262002F0C7FF0020AB
:1030600002F0C4FF242002F0C1FF002002F0BEFFE6
:10307000242002F0BBFF002002F0B8FF232002F062
:10308000B5FF002002F0B2FF3C2002F0AFFF0020AD
:1030900002F0ACFF362002F0A9FF002002F0A6FFEC
:1030A000322002F0A3FF002002F0A0FF2F2002F048
:1030B0009DFF002002F09AFF2C2002F097FF0020D5
:1030C00002F094FF292002F091FF002002F08EFF11
:1030D000262002F08BFF002002F088FF242002F05F
:1030E00085FF002002F082FF242002F07FFF0020F5
:1030F00002F07CFF232002F079FF002002F076FF2F
:10310000C42002F07FFF622002F070FF002002F076
:103110006DFF052002F06AFF002002F067FF8420A7
:1031200002F064FF002002F061FFF02002F05EFF79
:10313000002002F05BFF182002F058FF002002F090
:1031400055FFA42002F052FF002002F04FFF18208C
:1031500002F04CFF002002F049FF502002F046FF31
:10316000002002F043FF0C2002F040FF002002F09C
:103170003DFF172002F03AFF002002F037FF9520B4
:1031800002F034FF002002F031FFF32002F02EFFA6
:10319000002002F02BFFE62002F028FF002002F0C2
:1031A00025FFC52002F02EFF322002F01FFF002075
:1031B00002F01CFF442002F019FF002002F016FF6D
:1031C000652002F013FF002002F010FF762002F0CD
:1031D0000DFF002002F00AFF882002F007FF002008
:1031E00002F004FFC62002F00DFF202002F0FEFED8
:1031F000002002F0FBFE172002F0F8FE002002F093
:10320000F5FE012002F0F2FE002002F0EFFEC720E2
:1032100002F0F8FE002002F0E9FE002002F0E6FED7
:10322000002002F0E3FE002002F0E0FEC82002F0E1
:10323000E9FE002002F0DAFE002002F0D7FE0020B6
:1032400002F0D4FE002002F0D1FEC92002F0DAFE26
:10325000002002F0CBFE002002F0C8FE002002F0A9
:10326000C5FE002002F0C2FE002002F0BFFE0020DA
:1032700002F0BCFE002002F0B9FE002002F0B6FE13
:10328000002002F0B3FE002002F0B0FE002002F0A9
:10329000ADFE002002F0AAFE002002F0A7FE0020F2
:1032A00002F0A4FE002002F0A1FE002002F09EFE2B
:1032B000E02002F0A7FE162002F098FE002002F0A7
:1032C00095FE1C2002F092FE002002F08FFE2120CD
:1032D00002F08CFE002002F089FE362002F086FE0D
:1032E000002002F083FE462002F080FE002002F063
:1032F0007DFE522002F07AFE002002F077FE64206C
:1033000002F074FE002002F071FE7A2002F06EFEE0
:10331000002002F06BFE8B2002F068FE002002F01D
:1033200065FE992002F062FE002002F05FFEA820F8
:1033300002F05CFE002002F059FEB92002F056FEB9
:10334000002002F053FEC42002F050FE002002F0E4
:103350004DFECA2002F04AFE002002F047FED220B5
:1033600002F044FE002002F041FED92002F03EFEB1
:10337000002002F03BFEE02002F038FE002002F0C8
:1033800035FEF32002F032FE002002F02FFEE12095
:1033900002F038FE162002F029FE002002F026FE80
:1033A0001C2002F023FE002002F020FE222002F06A
:1033B0001DFE002002F01AFE362002F017FE00204B
:1033C00002F014FE452002F011FE002002F00EFE75
:1033D000522002F00BFE002002F008FE642002F0F2
:1033E00005FE002002F002FE7A2002F0FFFD002020
:1033F00002F0FCFD8B2002F0F9FD002002F0F6FD4A
:10340000992002F0F3FD002002F0F0FDA82002F068
:10341000EDFD002002F0EAFDB92002F0E7FD0020FA
:1034200002F0E4FDC42002F0E1FD002002F0DEFD28
:10343000CA2002F0DBFD002002F0D8FDD22002F00D
:10344000D5FD002002F0D2FDD82002F0CFFD0020F3
:1034500002F0CCFDE02002F0C9FD002002F0C6FD24
:10346000F32002F0C3FD002002F0C0FDE22002F0D4
:10347000C9FD052002F0BAFD002002F0B7FD0B20C7
:1034800002F0B4FD002002F0B1FD1B2002F0AEFD01
:10349000002002F0ABFD342002F0A8FD002002F075
:1034A000A5FD442002F0A2FD002002F09FFD4F2068
:1034B00002F09CFD002002F099FD612002F096FDD3
:1034C000002002F093FD792002F090FD002002F030
:1034D0008DFD882002F08AFD002002F087FD9720F4
:1034E00002F084FD002002F081FDA62002F07EFDA6
:1034F000002002F07BFDB72002F078FD002002F0F2
:1035000075FDC22002F072FD002002F06FFDC720A1
:1035100002F06CFD002002F069FDD12002F066FD92
:10352000002002F063FDD62002F060FD002002F0D2
:103530005DFDDD2002F05AFD002002F057FDF32072
:1035400002F054FD002002F051FDE32002F05AFD8C
:10355000052002F04BFD002002F048FD0A2002F099
:1035600045FD002002F042FD1C2002F03FFD00203E
:1035700000E0FDE202F03AFD332002F037FD0020CA
:1035800002F034FD442002F031FD002002F02EFD57
:10359000502002F02BFD002002F028FD622002F0F6
:1035A00025FD002002F022FD782002F01FFD002002
:1035B00002F01CFD882002F019FD002002F016FD2B
:1035C000972002F013FD002002F010FDA62002F06B
:1035D0000DFD002002F00AFDB72002F007FD0020DB
:1035E00002F004FDC22002F001FD002002F0FEFC0A
:1035F000C72002F0FBFC002002F0F8FCD12002F012
:10360000F5FC002002F0F2FCD52002F0EFFC0020D7
:1036100002F0ECFCDD2002F0E9FC002002F0E6FC08
:10362000F32002F0E3FC002002F0E0FCE42002F0D2
:10363000E9FC012002F0DAFC002002F0D7FC0120B6
:1036400002F0D4FC002002F0D1FC022002F0CEFCFB
:10365000002002F0CBFC2A2002F0C8FC002002F07F
:10366000C5FC3C2002F0C2FC002002F0BFFC4B2055
:1036700002F0BCFC002002F0B9FC5D2002F0B6FCB8
:10368000002002F0B3FC742002F0B0FC002002F035
:10369000ADFC842002F0AAFC002002F0A7FC9320DD
:1036A00002F0A4FC002002F0A1FCA22002F09EFC8B
:1036B000002002F09BFCB32002F098FC002002F0F6
:1036C00095FCBE2002F092FC002002F08FFCC4208A
:1036D00002F08CFC002002F089FCCD2002F086FC78
:1036E000002002F083FCD32002F080FC002002F0D6
:1036F0007DFCDD2002F07AFC002002F077FCF32054
:1037000002F074FC002002F071FCE52002F07AFC6B
:10371000002002F06BFC002002F068FC002002F0A8
:1037200065FC002002F062FC022002F05FFC002039
:1037300002F05CFC292002F059FC002002F056FC4B
:103740003C2002F053FC002002F050FC4B2002F021
:103750004DFC002002F04AFC5D2002F047FC0020F6
:1037600002F044FC742002F041FC002002F03EFC18
:10377000842002F03BFC002002F038FC932002F091
:1037800035FC002002F032FCA22002F02FFC0020C9
:1037900002F02CFCB32002F029FC002002F026FCF1
:1037A000BE2002F023FC002002F020FCC42002F026
:1037B0001DFC002002F01AFCCD2002F017FC0020B6
:1037C00002F014FCD32002F011FC002002F00EFCE9
:1037D000DC2002F00BFC002002F008FCF32002F0D9
:1037E00005FC002002F002FCE62002F00BFC112098
:1037F00002F0FCFB002002F0F9FB342002F0F6FBA3
:10380000002002F0F3FB562002F0F0FB002002F053
:10381000EDFB762002F0EAFB002002F0E7FB7720C8
:1038200002F0E4FB002002F0E1FB662002F0DEFB88
:10383000002002F0DBFB882002F0D8FB002002F021
:10384000D5FB992002F0D2FB002002F0CFFBBB2079
:1038500002F0CCFB002002F0C9FB992002F0C6FB6D
:10386000002002F0C3FB662002F0C0FB002002F043
:10387000BDFB552002F0BAFB002002F0B7FB55203B
:1038800002F0B4FB002002F0B1FB452002F0AEFBD9
:10389000002002F0ABFB432002F0A8FB002002F066
:1038A000A5FB442002F0A2FB002002F09FFBE720D2
:1038B00002F0A8FB322002F099FB002002F096FBF8
:1038C000552002F093FB002002F090FB762002F0DE
:1038D0008DFB002002F08AFB662002F087FB0020AF
:1038E00002F084FB672002F081FB002002F07EFBE7
:1038F000672002F07BFB002002F078FB872002F0BB
:1039000075FB002002F072FB992002F06FFB002093
:1039100002F06CFBBB2002F069FB002002F066FBAA
:10392000992002F063FB002002F060FB772002F098
:103930005DFB002002F05AFB442002F057FB002000
:1039400002F054FB562002F051FB002002F04EFB27
:10395000232002F04BFB002002F048FB332002F052
:1039600045FB002002F042FB452002F03FFB002017
:1039700002F03CFBE82002F045FB002002F036FBA1
:10398000002002F033FB992002F030FB002002F00F
:103990002DFB872002F02AFB002002F027FB882065
:1039A00002F024FB002002F021FB772002F01EFB36
:1039B000002002F01BFB662002F018FB002002F042
:1039C00015FB882002F012FB002002F00FFBAA205A
:1039D00002F00CFB002002F009FBBB2002F006FB0A
:1039E000002002F003FB992002F000FB002002F00F
:1039F000FDFA662002F0FAFA002002F0F7FA5520EC
:103A000002F0F4FA002002F0F1FA552002F0EEFA8A
:103A1000002002F0EBFA442002F0E8FA002002F065
:103A2000E5FA442002F0E2FA002002F0DFFA552025
:103A300002F0DCFA002002F0D9FAE92002F0E2FA02
:103A4000AA2002F0D3FA002002F0D0FA002002F0FF
:103A5000CDFA002002F0CAFA002002F0D3FAAA2020
:103A600002F0C4FACF2002F0CDFA002002F0BEFA34
:103A7000002002F0BBFA002002F0B8FA002002F0A9
:103A8000B5FA002002F0B2FA002002F0AFFA0020EE
:103A900002F0ACFA002002F0A9FA002002F0A6FA27
:103AA000002002F0A3FA002002F0A0FA002002F0A9
:103AB0009DFA002002F09AFA002002F097FA002006
:103AC00002F094FA002002F091FA002002F08EFA3F
:103AD000F02002F097FA002002F088FA502002F05D
:103AE00085FA002002F082FA002002F07FFA00201E
:103AF00002F07CFAF32002F085FA002002F076FA58
:103B0000F92002F07FFA062002F070FA102002F08D
:103B10006DFA292002F06AFA002002F067FA3A20D2
:103B200002F070FA552002F061FA112002F06AFAF0
:103B3000642003F091FC292002F064FA352002F0A1
:103B400061FA002002F052FA512002F05BFAFF20E5
:103B500002F04CFA532002F055FA2C2002F046FAFB
:103B6000552002F04FFA822002F040FA2C20FCE3AC
:103B7000A0427DD14FF470435521184602F058FA07
:103B80004FF20104AA21204602F052FA651C52218C
:103B9000284602F04DFAA61C0821304602F048FAE9
:103BA000E71C0121384602F043FA0D214FF4304062
:103BB00002F03EFA0D214BF2010002F039FA0D211C
:103BC0004BF2020002F034FA4FF4364834214046FA
:103BD00002F02EFA34214BF2016002F029FA34216E
:103BE0004BF2026002F024FA4FF431490D214846AD
:103BF00002F01EFA4BF2011A0D21504602F018FA9B
:103C00000D214BF2021002F013FA34214FF4374029
:103C100002F00EFA34214BF2017002F009FA34215D
:103C20004BF2027002F004FA00214FF4324002F02D
:103C3000FFF900214BF2012002F0FAF900214BF2CA
:103C4000022002F0F5F924214FF4384002F0F0F997
:103C500024214BF6010002F0EBF924214BF602007F
:103C600002F0E6F901214FF43F4002F0E1F900E0F3
:103C7000FEE30F214FF4334002F0DAF90F214BF24B
:103C8000013002F0D5F90F214BF2023002F0D0F9E9
:103C900034214FF4394002F0CBF934214BF60110B6
:103CA00002F0C6F934214BF6021002F0C1F90821E6
:103CB0004FF4354002F0BCF908214BF2015002F0FC
:103CC000B7F908214BF2025002F0B2F903214FF488
:103CD000424002F0ADF924214FF43A4002F0A8F935
:103CE00024214BF6012002F0A3F924214BF60220F7
:103CF00002F09EF900214FF43C4002F099F978213E
:103D00004BF6014002F094F900214BF6024002F01C
:103D10008FF900214FF43D4002F08AF978214BF6EB
:103D2000015002F085F900214BF6025002F080F9B3
:103D300000214FF43E4002F07BF964214BF6016014
:103D400002F076F900214FF4514002F071F933216D
:103D50004DF2011002F06CF900214DF2021002F058
:103D600067F934214DF2031002F062F900214DF29F
:103D7000041002F05DF93A214DF2051002F058F9F5
:103D800000214DF2061002F053F94A214DF20710BE
:103D900002F04EF900214DF2081002F049F95C21C1
:103DA0004DF2091002F044F900214DF20A1002F020
:103DB0003FF981214DF20B1002F03AF900214DF24A
:103DC0000C1002F035F9A6214DF20D1002F030F979
:103DD00000214DF20E1002F02BF9E5214DF20F10EB
:103DE00002F026F901214DF2101002F021F9132101
:103DF0004DF2111002F01CF901214DF2121002F0E7
:103E000017F954214DF2131002F012F901214DF26D
:103E1000141002F00DF982214DF2151002F008F98C
:103E200001214DF2161002F003F9CA214DF21710CC
:103E300002F0FEF802214DF2181002F0F9F800210C
:103E40004DF2191002F0F4F802214DF21A1002F0AE
:103E5000EFF801214DF21B1002F0EAF802214DF2B9
:103E60001C1002F0E5F834214DF21D1002F0E0F8CC
:103E700002214DF21E1002F0DBF867214DF21F10F7
:103E800002F0D6F802214DF2201002F0D1F8842180
:103E90004DF2211002F0CCF802214DF2221002F076
:103EA000C7F8A4214DF2231002F0C2F802214DF20E
:103EB000241002F0BDF8B7214DF2251002F0B8F839
:103EC00002214DF2261002F0B3F8CF214DF2271057
:103ED00002F0AEF802214DF2281002F0A9F8DE211E
:103EE0004DF2291002F0A4F802214DF22A1002F03E
:103EF0009FF8F2214DF22B1002F09AF802214DF2B8
:103F00002C1002F095F8FE214DF22D1002F090F8E1
:103F100003214DF22E1002F08BF810214DF22F10DC
:103F200002F086F803214DF2301002F081F83321BF
:103F30004DF2311002F07CF803214DF2321002F004
:103F400077F86D214DF2331002F072F800214FF432
:103F5000524002F06DF833214DF2012002F068F872
:103F600000214DF2022002F063F834214DF20320CB
:103F700002F05EF800214DF2042002F059F83A21D7
:103F80004DF2052002F054F800214DF2062002F017
:103F90004FF84A214DF2072002F04AF800214DF275
:103FA000082002F045F85C214DF2092002F040F8AB
:103FB00000214DF20A2002F03BF881214DF20B2046
:103FC00002F036F800214DF20C2002F031F8A62163
:103FD0004DF20D2002F02CF800214DF20E2002F0DF
:103FE00027F8E5214DF20F2002F022F801214DF2D1
:103FF000102002F01DF813214DF2112002F018F8E4
:1040000001214DF2122002F013F854214DF2132039
:1040100002F00EF801214DF2142002F009F882217D
:104020004DF2152002F004F801214DF2162001F0A6
:10403000FFFFCA214DF2172001F0FAFF02214DF2D5
:10404000182001F0F5FF00214DF2192001F0F0FFDA
:1040500002214DF21A2001F0EBFF01214DF21B204D
:1040600001F0E6FF02214DF21C2001F0E1FF3421B6
:104070004DF21D2001F0DCFF02214DF21E2001F067
:10408000D7FF67214DF21F2001F0D2FF02214DF230
:10409000202001F0CDFF84214DF2212001F0C8FF46
:1040A00002214DF2222001F0C3FFA4214DF2232072
:1040B00001F0BEFF02214DF2242001F0B9FFB7212B
:1040C0004DF2252001F0B4FF02214DF2262001F02F
:1040D000AFFFCF214DF2272001F0AAFF02214DF2C0
:1040E000282001F0A5FFDE214DF2292001F0A0FFDC
:1040F00002214DF22A2001F09BFFF2214DF22B20EC
:1041000001F096FF02214DF22C2001F091FFFE21DB
:104110004DF22D2001F08CFF03214DF22E2001F0F5
:1041200087FF10214DF22F2001F082FF03214DF275
:10413000302001F07DFF33214DF2312001F078FF76
:1041400003214DF2322001F073FF6D214DF2332037
:1041500001F06EFF00214FF4534001F069FF33215D
:104160004DF2013001F064FF00214DF2023001F008
:104170005FFF34214DF2033001F05AFF00214DF270
:10418000043001F055FF3A214DF2053001F050FFA7
:1041900000214DF2063001F04BFF4A214DF207306D
:1041A00001F046FF00214DF2083001F041FF5C2193
:1041B0004DF2093001F03CFF00214DF20A3001F0D0
:1041C00037FF81214DF20B3001F032FF00214DF21B
:1041D0000C3001F02DFFA6214DF20D3001F028FF2B
:1041E00000214DF20E3001F023FFE5214DF20F309A
:1041F00001F01EFF01214DF2103001F019FF1321D3
:104200004DF2113001F014FF01214DF2123001F096
:104210000FFF54214DF2133001F00AFF01214DF23E
:10422000143001F005FF82214DF2153001F000FF3E
:1042300001214DF2163001F0FBFECA214DF217307C
:1042400001F0F6FE02214DF2183001F0F1FE0021DE
:104250004DF2193001F0ECFE02214DF21A3001F05E
:10426000E7FE01214DF21B3001F0E2FE02214DF28A
:104270001C3001F0DDFE34214DF21D3001F0D8FE7E
:1042800002214DF21E3001F0D3FE67214DF21F30A6
:1042900001F0CEFE02214DF2203001F0C9FE842152
:1042A0004DF2213001F0C4FE02214DF2223001F026
:1042B000BFFEA4214DF2233001F0BAFE02214DF2DF
:1042C000243001F0B5FEB7214DF2253001F0B0FEEB
:1042D00002214DF2263001F0ABFECF214DF2273006
:1042E00001F0A6FE02214DF2283001F0A1FEDE21F0
:1042F0004DF2293001F09CFE02214DF22A3001F0EE
:1043000097FEF2214DF22B3001F092FE02214DF288
:104310002C3001F08DFEFE214DF22D3001F088FE93
:1043200003214DF22E3001F083FE10214DF22F308B
:1043300001F07EFE03214DF2303001F079FE332191
:104340004DF2313001F074FE03214DF2323001F0B4
:104350006FFE6D214DF2333001F06AFE00214FF403
:10436000544001F065FE332100E080E34DF201404E
:1043700001F05EFE00214DF2024001F059FE3421B1
:104380004DF2034001F054FE00214DF2044001F0D3
:104390004FFE3A214DF2054001F04AFE00214DF258
:1043A000064001F045FE4A214DF2074001F040FE73
:1043B00000214DF2084001F03BFE5C214DF2094026
:1043C00001F036FE00214DF20A4001F031FE81215C
:1043D0004DF20B4001F02CFE00214DF20C4001F09B
:1043E00027FEA6214DF20D4001F022FE00214DF2E4
:1043F0000E4001F01DFEE5214DF20F4001F018FEC8
:1044000001214DF2104001F013FE13214DF2114035
:1044100001F00EFE01214DF2124001F009FE54217F
:104420004DF2134001F004FE01214DF2144001F061
:10443000FFFD82214DF2154001F0FAFD01214DF200
:10444000164001F0F5FDCA214DF2174001F0F0FDD4
:1044500002214DF2184001F0EBFD00214DF2194010
:1044600001F0E6FD02214DF21A4001F0E1FD00E00D
:1044700000E301214DF21B4001F0DAFD02214DF273
:104480001C4001F0D5FD34214DF21D4001F0D0FD5E
:1044900002214DF21E4001F0CBFD67214DF21F407D
:1044A00001F0C6FD02214DF2204001F0C1FD842142
:1044B0004DF2214001F0BCFD02214DF2224001F0FD
:1044C000B7FDA4214DF2234001F0B2FD02214DF2CF
:1044D000244001F0ADFDB7214DF2254001F0A8FDCB
:1044E00002214DF2264001F0A3FDCF214DF22740DD
:1044F00001F09EFD02214DF2284001F099FDDE21E0
:104500004DF2294001F094FD02214DF22A4001F0C4
:104510008FFDF2214DF22B4001F08AFD02214DF278
:104520002C4001F085FDFE214DF22D4001F080FD73
:1045300003214DF22E4001F07BFD10214DF22F4062
:1045400001F076FD03214DF2304001F071FD332181
:104550004DF2314001F06CFD03214DF2324001F08B
:1045600067FD6D214DF2334001F062FD00214FF4F3
:10457000554001F05DFD33214DF2015001F058FD31
:1045800000214DF2025001F053FD34214DF2035051
:1045900001F04EFD00214DF2045001F049FD3A2199
:1045A0004DF2055001F044FD00214DF2065001F09E
:1045B0003FFD4A214DF2075001F03AFD00214DF236
:1045C000085001F035FD5C214DF2095001F030FD3D
:1045D00000214DF20A5001F02BFD81214DF20B50CC
:1045E00001F026FD00214DF20C5001F021FDA62125
:1045F0004DF20D5001F01CFD00214DF20E5001F066
:1046000017FDE5214DF20F5001F012FD01214DF291
:10461000105001F00DFD13214DF2115001F008FD75
:1046200001214DF2125001F003FD54214DF21350BF
:1046300001F0FEFC01214DF2145001F0F9FC822141
:104640004DF2155001F0F4FC01214DF2165001F02D
:10465000EFFCCA214DF2175001F0EAFC02214DF2A5
:10466000185001F0E5FC00214DF2195001F0E0FC7A
:1046700002214DF21A5001F0DBFC01214DF21B50DA
:1046800001F0D6FC02214DF21C5001F0D1FC342186
:104690004DF21D5001F0CCFC02214DF21E5001F0F4
:1046A000C7FC67214DF21F5001F0C2FC02214DF200
:1046B000205001F0BDFC84214DF2215001F0B8FCE6
:1046C00002214DF2225001F0B3FCA4214DF22350FF
:1046D00001F0AEFC02214DF2245001F0A9FCB721FB
:1046E0004DF2255001F0A4FC02214DF2265001F0BC
:1046F0009FFCCF214DF2275001F09AFC02214DF290
:10470000285001F095FCDE214DF2295001F090FC7B
:1047100002214DF22A5001F08BFCF2214DF22B5078
:1047200001F086FC02214DF22C5001F081FCFE21AB
:104730004DF22D5001F07CFC03214DF22E5001F082
:1047400077FC10214DF22F5001F072FC03214DF245
:10475000305001F06DFC33214DF2315001F068FC16
:1047600003214DF2325001F063FC6D214DF23350C4
:1047700001F05EFC00214FF4564001F059FC33215A
:104780004DF2016001F054FC00214DF2026001F095
:104790004FFC34214DF2036001F04AFC00214DF240
:1047A000046001F045FC3A214DF2056001F040FC47
:1047B00000214DF2066001F03BFC4A214DF20760FA
:1047C00001F036FC00214DF2086001F031FC5C2163
:1047D0004DF2096001F02CFC00214DF20A6001F05D
:1047E00027FC81214DF20B6001F022FC00214DF2EB
:1047F0000C6001F01DFCA6214DF20D6001F018FCCB
:1048000000214DF20E6001F013FCE5214DF20F6026
:1048100001F00EFC01214DF2106001F009FC1321A2
:104820004DF2116001F004FC01214DF2126001F023
:10483000FFFB54214DF2136001F0FAFB01214DF210
:10484000146001F0F5FB82214DF2156001F0F0FBE0
:1048500001214DF2166001F0EBFBCA214DF2176009
:1048600001F0E6FB02214DF2186001F0E1FB0021AE
:104870004DF2196001F0DCFB02214DF21A6001F0EB
:10488000D7FB01214DF21B6001F0D2FB02214DF25A
:104890001C6001F0CDFB34214DF21D6001F0C8FB1E
:1048A00002214DF21E6001F0C3FB67214DF21F6033
:1048B00001F0BEFB02214DF2206001F0B9FB842122
:1048C0004DF2216001F0B4FB02214DF2226001F0B3
:1048D000AFFBA4214DF2236001F0AAFB02214DF2AF
:1048E000246001F0A5FBB7214DF2256001F0A0FB8B
:1048F00002214DF2266001F09BFBCF214DF2276093
:1049000001F096FB02214DF2286001F091FBDE21BF
:104910004DF2296001F08CFB02214DF22A6001F07A
:1049200087FBF2214DF22B6001F082FB02214DF258
:104930002C6001F07DFBFE214DF22D6001F078FB33
:1049400003214DF22E6001F073FB10214DF22F6018
:1049500001F06EFB03214DF2306001F069FB332161
:104960004DF2316001F064FB03214DF2326001F041
:104970005FFB6D214DF2336001F05AFB5521184663
:1049800001F056FBAA21204601F052FB5221284695
:1049900001F04EFB0821304601F04AFB0021384669
:1049A00001F046FBCC21484601F042FB0021504675
:1049B00001F03EFB0521404601F03AFB70214FF427
:1049C000374001F035FB70214BF2017001F030FBF4
:1049D00001214FF4384001F02BFB03214BF601007D
:1049E00001F026FB03214BF6020001F021FB03211D
:1049F0004BF6030001F01CFB02214FF43C4001F098
:104A000017FB00214BF6014001F012FB00214BF691
:104A1000024001F00DFBD0214FF4494001F008FBAA
:104A200002214CF6011001F003FB50214CF602105C
:104A300001F0FEFA50214CF6031001F0F9FA502172
:104A40004CF6041001F0F4FA00214FF4545001F038
:104A5000EFFA55214FF4685001F0EAFA4FF488500C
:104A600001F0D0FA782002F013FD4FF4245001F049
:104A7000C9FAF3E0A0F513414FF480744FF4E069F4
:104A800040F2022A4FF4274625397CD040F20775C0
:104A9000C91E79D04FF488774FF41C56083174D072
:104AA000113973D0A0F5A841083970D0A0F5A851EC
:104AB0004FF4407705396BD0B1F5204169D0B1F59D
:104AC000805167D0A0F58A4131397CD0091F7BD055
:104AD0004045CED1E22001F095FA1D2001F086FA82
:104AE000022001F083FA042001F080FA642002F031
:104AF000CFFCE02001F086FA012001F077FA0A20CD
:104B000002F0AAFCE02001F07DFA032001F06EFA29
:104B10000C2002F0A1FC012001F074FA0A2002F03E
:104B20009BFCE62001F06EFA2F2001F05FFAFF20D7
:104B300001F05CFAFF2001F059FAB02001F062FAAE
:104B4000202001F053FA002001F050FA032001F078
:104B50004DFA40F21F3001F049FA012001F046FA07
:104B600040F2DF1001F042FA002001F03FFAB420D9
:104B700001F048FA042001F039FA40F21F4001F038
:104B800035FA002007E076E041E1F9E1A0E275E3C3
:104B9000FEE3FEE3FEE301F029FA2E2001F026FAFF
:104BA000002001F023FA002001F020FA002001F09B
:104BB0001DFA002001F01AFAB62001F023FA0220B3
:104BC00001F014FA01E0E6E3E6E34FF4037001F0CC
:104BD0000DFA002001F00AFA172001F007FA15205B
:104BE00001F004FA002001F001FA002001F0FEF9C2
:104BF000F02001F007FA032001F0F8F9292001F074
:104C000001FAD02001F0FEF9002001F0EFF9BE20FA
:104C100001F0F8F9052001F0E9F9FE2001F0E6F9CC
:104C2000012001F0E3F9002001F0E0F9002001F09B
:104C3000DDF9002001F0DAF9B82001F0E3F90320F2
:104C400001F0D4F9012001F0D1F9BA2001F0DAF92C
:104C5000012001F0CBF9642000F0F6FF0020FDF701
:104C6000BDFBFF490120C1F8BC025846FDF780FB9F
:104C700021B0BDE8F08F47F6F001E52001F0D8F94A
:104C80002146012001F0D4F94946022001F0D0F973
:104C900041F23001032001F0CBF90021042001F0A2
:104CA000C7F95146082001F0C3F90021092001F09D
:104CB000BFF900210A2001F0BBF900210C2001F00E
:104CC000B7F900210D2001F0B3F900210F2001F008
:104CD000AFF90021102001F0ABF90721112001F0FC
:104CE000A7F90021122001F0A3F90021132001F0FF
:104CF0009FF90021072001F09BF941F290611020FB
:104D000001F096F940F22721112001F091F99D213F
:104D1000122001F08DF94FF4C851132001F088F9E9
:104D20002521292001F084F90D212B2001F080F9A3
:104D30000721302001F07CF940F20331312001F0ED
:104D400077F90321322001F073F940F20621352072
:104D500001F06EF90821362001F06AF940F20641AF
:104D6000372001F065F94FF44171382001F060F906
:104D70000721392001F05CF940F202613C2001F08A
:104D800057F908213D2001F053F90021502001F08E
:104D90004FF9EF21512001F04BF90021522001F091
:104DA00047F940F23F11532001F042F931466020AB
:104DB00001F03EF90121612001F03AF900216A2059
:104DC00001F036F90021802001F032F90021812024
:104DD00001F02EF90021822001F02AF90021832020
:104DE00001F026F90021842001F022F9002185201C
:104DF00001F01EF91021902001F01AF94FF4C06162
:104E0000922001F015F940F233110720FEE341F240
:104E10008F01EC2001F00CF941F23421EF2001F078
:104E200007F92146012001F003F94946022001F06B
:104E3000FFF841F23001032001F0FAF800210420CC
:104E400001F0F6F85146082001F0F2F8002109209F
:104E500001F0EEF800210A2001F0EAF801210C200F
:104E600001F0E6F800210D2001F0E2F800210F200A
:104E700001F0DEF80021102001F0DAF807211120FE
:104E800001F0D6F80021122001F0D2F80021132001
:104E900001F0CEF80121072001F0CAF8322002F01B
:104EA000DBFA41F29041102001F0C2F840F22721D4
:104EB000112001F0BDF8322002F0CEFA8A21122032
:104EC00001F0B6F8322002F0C7FA4FF4D0511320A7
:104ED00001F0AEF80621292001F0AAF80D212B20BF
:104EE00001F0A6F8322002F0B7FA0021202001F0EC
:104EF0009FF80021212001F09BF8322002F0ACFA4B
:104F00000021302001F094F840F20461312001F0DA
:104F10008FF840F20531322001F08AF80021352067
:104F200001F086F840F60941362001F081F84FF48F
:104F30000171372001F07CF840F20131382001F096
:104F400077F82946392001F073F800213C2001F060
:104F50006FF840F60A213D2001F06AF8322002F095
:104F60007BFA0021502001F063F8EF21512001F07D
:104F70005FF80021522001F05BF840F23F114EE152
:104F80000021084601F054F82146012001F050F8B4
:104F90004946022001F04CF841F23001032001F0B3
:104FA00047F80021042001F043F85146082001F0A1
:104FB0003FF80021092001F03BF800210A2001F010
:104FC00037F801210C2001F033F800210D2001F009
:104FD0002FF800210F2001F02BF8322002F03CFACC
:104FE00040F20111072001F023F8322002F034FAD8
:104FF0004FF48651102001F01BF80721112001F019
:1050000017F83946122001F013F84FF430611320DD
:1050100001F00EF80021292001F00AF844F21001F5
:105020002B2001F005F80021502001F001F8EF21BC
:10503000512000F0FDFF0021522000F0F9FF40F266
:105040003F11532000F0F4FF3146602000F0F0FFE4
:105050000121612000F0ECFF00216A2002E0000045
:105060000080404200F0E4FF0021802000F0E0FFDB
:105070000021812000F0DCFF0021822000F0D8FF19
:105080000021832000F0D4FF0021842000F0D0FF15
:105090000021852000F0CCFF1021902000F0C8FFF7
:1050A0000021922000F0C4FF0121932000F0C0FFF6
:1050B0003946952000F0BCFF0021972000F0B8FF92
:1050C0000021982000F0B4FF40F27311072080E324
:1050D00041F21401E72000F0ABFF2146012000F06F
:1050E000A7FF4FF40071022000F0A2FF41F2380147
:1050F000032000F09DFF5146082000F099FF002199
:10510000092000F095FF00210A2000F091FF002106
:105110000C2000F08DFF00210D2000F089FF002100
:105120000F2000F085FF0021102000F081FF0721F3
:10513000112000F07DFF0021122000F079FF0021F6
:10514000132000F075FFC82002F086F941F290614B
:10515000102000F06DFF40F22721112000F068FFC1
:10516000322002F079F90C21122000F061FF322088
:1051700002F072F94FF40061132000F059FF112181
:10518000292000F055FF0B212B2000F051FF322089
:1051900002F062F90021202000F04AFF40F23F13A4
:1051A0001946212000F044FF0021302000F040FF8C
:1051B0004FF483742146312000F03AFF0021322061
:1051C00000F036FF4FF40171352000F031FF41F25D
:1051D0000A61362000F02CFF2946372000F028FF16
:1051E0002146382000F024FF2946392000F020FF16
:1051F00040F202413C2000F01BFF40F60F413D20F1
:1052000000F016FF0021502000F012FFEF21512086
:1052100000F00EFF0021522000F00AFF1946532033
:1052200000F006FF3146602000F002FF01216120FE
:1052300000F0FEFE00216A2000F0FAFE002180202E
:1052400000F0F6FE0021812000F0F2FE0021822015
:1052500000F0EEFE0021832000F0EAFE0021842011
:1052600000F0E6FE0021852000F0E2FE10219020F3
:1052700000F0DEFE4FF4C0619220FCE321460120E5
:1052800000F0D6FE4946022000F0D2FE41F2300185
:10529000032000F0CDFE0021042000F0C9FE40F202
:1052A0000721082000F0C4FE0021092000F0C0FE04
:1052B00000210A2000F0BCFE00210C2000F0B8FE06
:1052C00000210D2000F0B4FE00210F2000F0B0FE00
:1052D000142002F0C1F841F2B061102000F0A8FEE5
:1052E0000121112000F0A4FE0121172000F0A0FEF2
:1052F0004FF49C71122000F09BFE4FF400611320CC
:1053000000F096FE0921292000F092FE09212A20B2
:1053100000F08EFE0021A42000F08AFE0021502023
:1053200000F086FEEF21512000F082FE0021522085
:1053300000F07EFE40F23F11532000F079FE31462E
:10534000602000F075FE0121612000F071FE002157
:105350006A2000F06DFE0021802000F069FE00212F
:10536000812000F065FE0021822000F061FE002116
:10537000832000F05DFE0021842000F059FE002112
:10538000852000F055FE1321902000F051FE04E02E
:1053900016E022E11EE2E5E29AE30021922000F00D
:1053A00047FE0321932000F043FE3946952000F08C
:1053B0003FFE40F27311072000F03AFE322008E170
:1053C0000021072000F034FE322002F045F84FF4AF
:1053D0008E71122000F02CFE0121A42000F028FE86
:1053E0000F21082000F024FE08210A2000F020FEF2
:1053F00008210D2000F01CFE2B462946302000F02D
:1054000017FE0721312000F013FE40F20361322025
:1054100000F00EFE4D464946332000F009FE51468D
:10542000342000F005FE0221352000F001FE41F697
:105430000F71362000F0FCFD1946372000F0F8FD12
:105440000021382000F0F4FD0021392000F0F0FDAB
:1054500019463A2000F0ECFD00213B2000F0E8FD69
:1054600007213C2000F0E4FD00213D2000F0E0FD9C
:10547000322001F0F1FF0121072000F0D9FD0121C8
:10548000172000F0D5FD322001F0E6FF4FF4BD51AA
:10549000102000F0CDFD40F21721112000F0C8FDD2
:1054A0004FF48F71122000F0C3FD4FF47061132090
:1054B00000F0BEFD00212A2000F0BAFD0A212920BB
:1054C00000F0B6FD4FF49F71122000F0B1FD0021F5
:1054D000502000F0ADFDEF21512000F0A9FD00218A
:1054E000522000F0A5FD40F23F11532000F0A0FD36
:1054F0003146602000F09CFD0121612000F098FD04
:1055000000216A2000F094FD0021802000F090FD31
:105510000021812000F08CFD0021822000F088FD18
:105520000021832000F084FD0021842000F080FD14
:105530000021852000F07CFD1321902000F078FDF3
:105540003946922000F074FD0521932000F070FD93
:105550000021952000F06CFD0021972000F068FDEF
:105560000021982000F064FD2146012000F060FD3C
:105570002946022000F05CFD41F23801032000F0D2
:1055800057FD0021042000F053FD00210C2000F005
:105590004FFD00210F2000F04BFD0021202000F0E6
:1055A00047FD0021212000F043FD2121072000F0CC
:1055B0003FFD142001F050FF6121072000F038FD6D
:1055C000142001F049FF40F27311072000F030FD74
:1055D000142001F041FFFFF741BB0021084600F015
:1055E00027FD0021084600F023FD0021084600F0B9
:1055F0001FFD0021084600F01BFD0121A42000F042
:1056000017FD142001F028FF314600E0DDE06020A6
:1056100000F00EFD55465146082000F009FD4FF4FC
:105620000571302000F004FD43F21571312000F0C7
:10563000FFFC40F20461322000F0FAFC40F61661F3
:10564000332000F0F5FC42F21121342000F0F0FC90
:105650004FF4A851352000F0EBFC48F207513620FA
:1056600000F0E6FC41F20741372000F0E1FC41F296
:105670000341382000F0DCFC2021392000F0D8FC68
:105680001A21902000F0D4FC0021102000F0D0FC62
:105690000721112000F0CCFC0021122000F0C8FCF2
:1056A0000021132000F0C4FC142001F0D5FE4FF4BB
:1056B000E661102000F0BCFC40F23711112000F030
:1056C000B7FC142001F0C8FE4FF4DC71122000F08A
:1056D000AFFC142001F0C0FE4FF47061132000F005
:1056E000A7FC80212A2000F0A3FC4821292000F0FB
:1056F0009FFC142001F0B0FE2146012000F098FC30
:105700004946022000F094FC41F23801032000F0E9
:105710008FFC2946082000F08BFC00210A2000F0B5
:1057200087FC00210C2000F083FC00210D2000F0FC
:105730007FFC30210E2000F07BFC0021502000F087
:1057400077FCEF21512000F073FC0021522000F083
:105750006FFC40F23F11532000F06AFC314660209C
:1057600000F066FC0121612000F062FC00216A204B
:1057700000F05EFC1121902000F05AFC4FF4C06153
:10578000922000F055FC40F20241932000F050FCC2
:105790000221942000F04CFC142001F05DFE012158
:1057A000072000F045FC142001F056FE612107207F
:1057B00000F03EFC40F27311072000F039FC00219C
:1057C000202000F035FC0021212000F031FC2221B6
:1057D00000207AE10021084600F02AFC002108465A
:1057E00000F026FC142001F037FE0021084600F0EE
:1057F0001FFC0021084600F01BFC0021084600F0B9
:1058000017FC0021084600F013FC0121A42000F041
:105810000FFC142001F020FE3146602000F008FC4F
:1058200040F60601082000F003FC40F2037319461D
:10583000302000F0FDFB0121312000F0F9FB0421B4
:10584000322000F0F5FB4FF48171332000F0F0FBC3
:105850003946342000F0ECFB40F20311352000F013
:10586000E7FB1F21362000F0E3FB1946372000F04C
:10587000DFFB0121382000F0DBFB0421392000F0A0
:10588000D7FB1521902000F0D3FB4FF4826110204C
:1058900000F0CEFB40F24721112000F0C9FB4FF48D
:1058A000DE71122000F0C4FB4FF46061132000F0A1
:1058B000BFFB782001F0D0FD2146012000F0B8FBAD
:1058C0004FF40071022000F0B3FB41F230010320DD
:1058D00000F0AEFB08210A2000F0AAFB00210C20FA
:1058E00000F0A6FB20210E2000F0A2FB00210F20DB
:1058F00000F09EFB0021202000F09AFB00212120D7
:1059000000F096FB3D212A2000F092FB142001F0CC
:10591000A3FD2D21292000F08BFB0021502000F059
:1059200087FB4DF2EF01512000F082FB0021522055
:1059300000F07EFB40F23F11532000F079FB002184
:10594000612000F075FB00216A2000F071FB3946F0
:10595000922000F06DFB0521932000F069FB2146A9
:10596000FFF7B4BB0121002000F062FB0A2001F028
:1059700073FD41F22861102000F05AFB0E21122025
:1059800000F056FB40F63921132000F051FB0A20AD
:1059900001F062FD4021112000F04AFB502115204A
:1059A00000F046FB0A2001F057FD1E21122000F0F6
:1059B0003FFB0A2001F050FD4FF4B151102000F0E0
:1059C00037FB42F63921132000F032FB0A2001F0A8
:1059D00043FD2146012000F02BFB3946022000F058
:1059E00027FB41F23801032000F022FB514608203A
:1059F00000F01EFB08210A2000F01AFB00213020D5
:105A000000F016FB40F20241312000F011FB4FF490
:105A10008371322000F00CFB40F20351332000F080
:105A200007FB4FF48271342000F002FB40F2013199
:105A3000352000F0FDFA2946362000F0F9FA40F250
:105A40000531372000F0F4FA4FF40271382000F0ED
:105A5000EFFA40F60B71392000F0EAFA02214120FA
:105A600000F0E6FA3146602000F0E2FA0121612000
:105A700000F0DEFA00E0CDE04FF40471902000F079
:105A8000D7FA4FF48571922000F0D2FA04219320C6
:105A900000F0CEFA2146A02000F0CAFA012107202A
:105AA00000F0C6FA2121072000F0C2FA23210720C6
:105AB00000F0BEFA3321072000F0BAFA40F23311A9
:105AC000072000F0B5FA0021A02000F0B1FA82E52D
:105AD0003021152000F0ACFA10219A2000F0A8FA2D
